:060000000C9433000C9487
:1000060063000C9400000C9400000C9400000C9407
:1000160000000C9400000C9400000C9400000C945A
:1000260000000C9400000C9400000C9400000C944A
:1000360000000C9400000C9400000C9400000C943A
:1000460000000C9400000C9400000C9400002100A9
:1000560021000200060054000200080056000000BD
:10006600F894EE27ECBBF1E0FBBFEBBFE5BFF8E190
:10007600F1BDE1BD8DE0A2E0BB27ED938A95E9F7DE
:1000860080E094E0A0E6ED930197E9F7E8E5F0E07B
:1000960085919591009761F0A591B5910590159080
:1000A600BF01F00105900D920197E1F7FB01F0CF3A
:1000B600EFE5EDBFE4E0EEBFC0E6D1E00C946400EE
:1000C600189533D400D3F3D2E0E2F3E0FA93EA933F
:1000D60097D2FBD2E8E9F8E0FA93EA9391D2EBD211
:1000E600859B0AC0869B08C09F9B06C09E9B04C03A
:1000F6009C9B02C09D9901C001C0F2CF859902C0A8
:100106003AD315C0869902C05BD311C09F9902C02D
:100116007FD30DC09E9902C09FD309C09C9902C08F
:10012600C7D305C09D9902C0E3D301C0FFCFFFCF5F
:10013600E881F981309719F4E0E0F0E08FC2E13010
:10014600A0E0FA0719F4E62DF72D88C2E230A0E008
:10015600FA0729F4E62DF72DEE0FFF1F7FC2E330D5
:10016600A0E0FA0739F4A62DB72DE3E0F0E00E94EF
:100176008E0574C2E430A0E0FA0729F4E62DF72DC7
:100186000E9477056BC2E530A0E0FA0739F4A62D88
:10019600B72DE5E0F0E00E948E0560C2E630A0E0F3
:1001A600FA0739F4A62DB72DE6E0F0E00E948E0599
:1001B60055C254C2E881F981309719F4E0E0F0E0C5
:1001C6004DC2E130A0E0FA0719F4E82DF92D46C238
:1001D600E230A0E0FA0729F4E82DF92DEE0FFF1F13
:1001E6003DC2E330A0E0FA0739F4A82DB92DE3E0CB
:1001F600F0E00E948E0532C2E430A0E0FA0729F44E
:10020600E82DF92D0E94770529C2E530A0E0FA070E
:1002160039F4A82DB92DE5E0F0E00E948E051EC246
:10022600E630A0E0FA0739F4A82DB92DE6E0F0E0B3
:100236000E948E0513C212C2E5E1F0E06E2E7F2EFB
:10024600E4E1F0E08E2E9F2E0895E1E1F0E06E2EBF
:100256007F2EE0E1F0E08E2E9F2E0895E9E0F0E09B
:100266006E2E7F2E8E2E9F2E0895E0E0CB99E1E034
:10027600A1E00E947C05EF93E0E0CC99E1E00E94CA
:100286007C05AF91EA2319F0E0E0F0E00895E0E0A4
:10029600CB99E1E0A1E00E947C05EF93E0E0CA99EA
:1002A600E1E00E947C05AF91EA2319F0E6E1F0E077
:1002B6000895CB9B03C0E5E1F0E00895E0E0CC991A
:1002C600E1E0A1E00E947C05EF93E0E0CD99E1E05A
:1002D6000E947C05AF91EA2319F0ECE0F0E0089566
:1002E600CC9B03C0EBE0F0E00895E0E0CA99E1E0C2
:1002F600A1E00E947C05EF93E0E0C999E1E00E944D
:100306007C05AF91EA2319F0E8E1F0E00895CA9B75
:1003160003C0E7E1F0E00895E0E0CD99E1E0A1E077
:100326000E947C05EF93E0E0CE99E1E00E947C0517
:10033600AF91EA2319F0EEE0F0E00895CD9B03C0FB
:10034600EDE0F0E00895C99B03C0E9E1F0E008950F
:10035600CE9B03C0EFE0F0E0089521FE03C0E0E18C
:10036600F0E0089520FE03C0EAE1F0E00895089564
:10037600E881F981E130A0E0FA0729F4C29AC4982D
:10038600C09AC1981AC0E230A0E0FA0729F4C298D0
:10039600C49AC098C19A11C0E330A0E0FA0729F4C4
:1003A600C298C49AC09AC19808C0E430A0E0FA077F
:1003B60021F4C29AC498C098C19A50C1EA81FB81BF
:1003C600FA93EA93B5DEE3BDE881F981FA93EA93FD
:1003D600F1DEECBF24960895E1E0F0E0FA93EA93AB
:1003E600C7DFE881F981309719F4E6E0F0E08BC0C9
:1003F600EB30A0E0FA0719F4E5E0F0E084C0EC3059
:10040600A0E0FA0739F4E4E0F0E0C1D220F8E8947D
:1004160021F880C0ED30A0E0FA0739F4E3E0F0E01F
:10042600B6D220F8E89421F875C0EE30A0E0FA07BD
:1004360039F4E2E0F0E0ABD220F8E89421F86AC0A3
:10044600EF30A0E0FA0739F4E1E0F0E0A0D220F8BE
:10045600E89421F85FC0E031A0E0FA0739F4E6E05D
:10046600F0E0FA93EA93E0E0F0E051C0E531A0E075
:10047600FA0739F4E6E0F0E0FA93EA93E5E0F0E013
:1004860046C0E631A0E0FA0759F4E6E0F0E0FA9358
:10049600EA93E4E0F0E084D220F8689421F83AC0C8
:1004A600E731A0E0FA0759F4E6E0F0E0FA93EA93C0
:1004B600E3E0F0E075D220F8689421F82BC0E8312B
:1004C600A0E0FA0759F4E6E0F0E0FA93EA93E2E0F6
:1004D600F0E066D220F8689421F81CC0E931A0E06B
:1004E600FA0759F4E6E0F0E0FA93EA93E1E0F0E087
:1004F60057D220F8689421F80DC0EA31A0E0FA0737
:1005060049F4E0E0F0E0FA93EA93E6E0F0E0FA93EB
:10051600EA9354DFA3C0A9DEFA93EA935DDF089558
:10052600FF920E94A105FF240CE11CE020EA36E8B8
:10053600CF9902C0C89B01C001C05DC0CF9B2DC032
:1005460000240216030640F521503040E4DFC89B24
:1005560002C0F0FE01C00EC0E1E0F0E04E0E5F1EEC
:100566006894F0F800240016010620F401501040AB
:10057600D2DFF8CFE0E0F0FCE1E0A1E00E947C05EC
:10058600EF93E0E0C899E1E0A0E00E947C05AF911E
:10059600EA2309F030C0D4CF2EC0C89B2CC000245B
:1005A6000216030640F521503040B5DFE0E0CF9952
:1005B600E1E0A1E00E947C05EF93E0E0F0FCE1E0E1
:1005C600A0E00E947C05AF91EA2371F0E1E0F0E043
:1005D6004E0E5F1E6894F0F800240016010620F403
:1005E6000150104098DFF8CFF0FE02C0CF9B01C04B
:1005F60001C001C0D4CF0E94A6052496FF9008959D
:100606002497D3D1A1F0E0E0E883E983EA83EB8382
:10061600A881B9818A819B81AC32E1E0BE07E0E026
:100626008E07E0E09E0710F4C7D1F2CFEACF31C0C3
:1006360072DF76DFE881F9814E165F06CCF344243B
:10064600552429D00BC001DE66DF6ADFE881F98117
:100656004E165F06CCF3442455241DD022960895E9
:100666002497A3D1A9F0E0E0E883E983EA83EB834A
:10067600A881B9818A819B81AC32E1E0BE07E0E0C6
:100686008E07E0E09E0718F446DF96D1F1CFE9CF5A
:1006960002D026960895C298C098C198C498089525
:1006A600D4DDE0E5F0E0FA93EA93DADF0895C69A3E
:1006B6000895C59A0895C6980895C5980895919A7B
:1006C600089591980895929A08959298089581D1DF
:1006D600B3DDE0E0C899E1E0A0E00E947C05EF937D
:1006E600E0E0CB99E1E0A1E00E947C05AF91EA2B26
:1006F60031F0C09AC198C298C49A71D1EACF6FD12D
:10070600C09AC298C49ACC9B02C0CB9901C0F7CFBD
:10071600C498C09A5ED108955CD18EDDE0E0CF9991
:10072600E1E0A0E00E947C05EF93E0E0CC99E1E0F7
:10073600A1E00E947C05AF91EA2B31F0C29AC498E1
:10074600C098C19A4CD1EACF4AD1C29AC098C19AF0
:10075600E0E0CB99E1E0A1E00E948105EF93E0E0C3
:10076600CC99E1E00E948105AF91EA2B69F7C19827
:10077600C29A2FD108951A930A9300E41BE490DFDE
:1007860035D139D14AD16ADDE3E2F0E04BD199990E
:10079600FECF0024001601061CF401501040F9CFCC
:1007A6009999FECF43D1989B02C083DFFCCF43D1FA
:1007B600E4E3F8E05AD16FDF62D16DDFFFCF75C099
:1007C6001A930A9300E41BE46BDF59D135DDE2E0AE
:1007D600F0E05AD110D10AD141DDE6E2F0E022D1B3
:1007E6009999FECF0024001601061CF40150104012
:1007F600F9CF9999FECF1AD1989B02C05ADFFCCF48
:100806001AD1E0EDF7E031D13AD145DFFFCF4DC047
:100816001A930A9300E41BE443DF31D139D1EBD0BC
:100826002ED1E2E3F0E0FED09999FECF0024001627
:1008360001061CF401501040F9CF9999FECFF6D06D
:10084600989B02C036DFFCCFF6D0E0EDF7E00DD185
:1008560016D121DFFFCF29C01A930A9300E41BE4C7
:100866001FDFE3E0F0E0FA93EA93EDDE30DF07D135
:10087600E5E0F0E009D1E4E1F0E0D4D09999FECFCB
:100886000024001601061CF401501040F9CF999976
:10089600FECFCCD0989B02C00CDFFCCFCCD0E0EDD5
:1008A600F7E0E3D0A3D0F7DEFFCF099119910895C1
:1008B600F7DEE5D031DFE3D0EBD0EED008DFDFD0D6
:1008C600BBDCE5E0F0E0FA93EA93B2DE8FD0FFDE20
:1008D600E3E0F0E0FA93EA93ABDE9FD01DDFCFD0E2
:1008E600E2D09BD019DFCBD0DED0E3D0F6CF08958F
:1008F600D7DEC5D0CDD0D0D00FDFC1D09DDCE1E0B2
:10090600F0E0C2D0E4DE89D0E2DEE1E0F0E0FA9386
:10091600EA938EDE82D000DFB2D0C5D07ED0FCDE78
:10092600AED0C1D0C6D0F6CF0895E0E0EBBBEABBAF
:10093600E8BBEFEFE7BBE0E0E5BBE4BBE2BBEFE91A
:10094600E1BBEAE6BBD0EFE7ECBFEAE6BBD0EEE6FA
:10095600BDD0EBB7E064EBBFE0E0E5BFE4BFE0E4A9
:10096600EABFECE6ABD0E0E0ECBFEFBDE4E0EEBD05
:10097600E0E0EDBDECBDE7BDE6BDEBBDEABDE9BD22
:10098600E8BDE2BDEEE69ED0E0E0A0D00895FA9381
:10099600EA93E6E0F0E0FA93EA9310DD68940895AE
:1009A600FA93EA930BDDE8940895EC81FD81319783
:1009B600EC83FD8331960895E881F9816A817B8114
:1009C600EF5FFF4F6F4F7F4FE883F9836A837B8327
:1009D600089561DEECE2F1E0FA93EA9311CEE5E0E8
:1009E600F0E0FA93EA93FA93EA93E8CCE2E0F0E0D7
:1009F600FA93EA9328CE90DEE1E0F0E0FA93EA93E8
:100A060022DE1ADCE2E0F0E0FA93EA9311DEE1E09E
:100A1600F0E0FA93EA9317DE5ACEE4E0F0E0FA93B8
:100A2600EA9311CEFA93EA931BDE35CEECEDF5E0B0
:100A3600FA93EA93E5CD41DEE8ECF0E0FA93EA9327
:100A4600DFDD3DDEE4E8F3E0FA93EA93D9DD39DE53
:100A560030DEE8EEF3E0FA93EA93D2DD2EDEE0E450
:100A6600FFE1FA93EA93CCDD22CEFA93EA93C8DD4E
:100A7600EEE5F3E0E8EEF3E0FA93EA93C1CDE1E0C8
:100A8600F0E0FA93EA93DFCDFA93EA93D1DDF7CF5C
:100A9600D3DBE3E0F0E0F8CF12DEE8E5F2E0FA932C
:100AA600EA93AEDD0ECEEAE0F0E0FA93EA93D8DD03
:100AB60033CEE8E8F3E1FA93EA93A2CDE3BFE0E0B0
:100AC600E2BF0895E5BDE0E0E4BD0895E3BDE0E0E2
:100AD600E5BFE4BFE9BFE0E8E8B9E0E0E0BF0895BC
:100AE600E095F09531960895EE0FFF1FEE0FFF1F6C
:100AF6000895EA17E1E009F0EE270895EA17E1E024
:100B060009F4EE270895FA9FF02DEB9FF00DEA9F6A
:100B1600E02DF10D089504D0F6DF0EF4E1DF08951F
:100B2600E894F7FF02C0DCDF6894B7FF06C0A09523
:100B3600B095119600F8039400FA08953A932A9313
:100B46001A930A9308953B812A8119810881089591
:00000001FF
